{
  "contractName": "SignalTokenProtocol",
  "abi": [
    {
      "constant": true,
      "inputs": [
        {
          "name": "",
          "type": "uint256"
        }
      ],
      "name": "campaignsTable",
      "outputs": [
        {
          "name": "",
          "type": "uint256"
        }
      ],
      "payable": false,
      "stateMutability": "view",
      "type": "function"
    },
    {
      "constant": true,
      "inputs": [
        {
          "name": "",
          "type": "uint256"
        }
      ],
      "name": "campaigns",
      "outputs": [
        {
          "name": "advertiser",
          "type": "address"
        },
        {
          "name": "title",
          "type": "string"
        },
        {
          "name": "description",
          "type": "string"
        },
        {
          "name": "contentUrl",
          "type": "string"
        },
        {
          "name": "reward",
          "type": "uint256"
        },
        {
          "name": "budget",
          "type": "uint256"
        }
      ],
      "payable": false,
      "stateMutability": "view",
      "type": "function"
    },
    {
      "constant": true,
      "inputs": [
        {
          "name": "campaignId",
          "type": "uint256"
        }
      ],
      "name": "getCampaign",
      "outputs": [
        {
          "name": "advertiser",
          "type": "address"
        },
        {
          "name": "title",
          "type": "string"
        },
        {
          "name": "description",
          "type": "string"
        },
        {
          "name": "contentUrl",
          "type": "string"
        },
        {
          "name": "reward",
          "type": "uint256"
        },
        {
          "name": "budget",
          "type": "uint256"
        }
      ],
      "payable": false,
      "stateMutability": "view",
      "type": "function"
    },
    {
      "constant": true,
      "inputs": [],
      "name": "getCampaignsCount",
      "outputs": [
        {
          "name": "",
          "type": "uint256"
        }
      ],
      "payable": false,
      "stateMutability": "view",
      "type": "function"
    },
    {
      "constant": false,
      "inputs": [
        {
          "name": "title",
          "type": "string"
        },
        {
          "name": "description",
          "type": "string"
        },
        {
          "name": "contentUrl",
          "type": "string"
        },
        {
          "name": "reward",
          "type": "uint256"
        },
        {
          "name": "budget",
          "type": "uint256"
        }
      ],
      "name": "createCampaign",
      "outputs": [
        {
          "name": "campaignId",
          "type": "uint256"
        }
      ],
      "payable": false,
      "stateMutability": "nonpayable",
      "type": "function"
    },
    {
      "constant": true,
      "inputs": [],
      "name": "signalToken",
      "outputs": [
        {
          "name": "",
          "type": "address"
        }
      ],
      "payable": false,
      "stateMutability": "view",
      "type": "function"
    },
    {
      "constant": false,
      "inputs": [
        {
          "name": "campaignId",
          "type": "uint256"
        },
        {
          "name": "publisher",
          "type": "address"
        }
      ],
      "name": "executeCampaign",
      "outputs": [
        {
          "name": "",
          "type": "bool"
        }
      ],
      "payable": false,
      "stateMutability": "nonpayable",
      "type": "function"
    },
    {
      "inputs": [
        {
          "name": "_signalToken",
          "type": "address"
        }
      ],
      "payable": false,
      "stateMutability": "nonpayable",
      "type": "constructor"
    },
    {
      "anonymous": false,
      "inputs": [
        {
          "indexed": true,
          "name": "_advertiser",
          "type": "address"
        },
        {
          "indexed": false,
          "name": "_title",
          "type": "string"
        },
        {
          "indexed": false,
          "name": "_reward",
          "type": "uint256"
        }
      ],
      "name": "CampaignCreated",
      "type": "event"
    },
    {
      "anonymous": false,
      "inputs": [
        {
          "indexed": false,
          "name": "_campaignId",
          "type": "uint256"
        },
        {
          "indexed": true,
          "name": "_publisher",
          "type": "address"
        },
        {
          "indexed": false,
          "name": "_reward",
          "type": "uint256"
        }
      ],
      "name": "CampaignExecuted",
      "type": "event"
    }
  ],
  "bytecode": "0x6060604052341561000f57600080fd5b604051602080610f198339810160405280805190602001909190505080600260006101000a81548173ffffffffffffffffffffffffffffffffffffffff021916908373ffffffffffffffffffffffffffffffffffffffff16021790555050610e9d8061007c6000396000f300606060405260043610610083576000357c0100000000000000000000000000000000000000000000000000000000900463ffffffff168063119241cb14610088578063141961bc146100bf5780635598f8cc146102cb5780637e6253da14610480578063980f2e66146104a9578063d06c7b5b146105b2578063f207eefe14610607575b600080fd5b341561009357600080fd5b6100a96004808035906020019091905050610661565b6040518082815260200191505060405180910390f35b34156100ca57600080fd5b6100e06004808035906020019091905050610685565b604051808773ffffffffffffffffffffffffffffffffffffffff1673ffffffffffffffffffffffffffffffffffffffff1681526020018060200180602001806020018681526020018581526020018481038452898181546001816001161561010002031660029004815260200191508054600181600116156101000203166002900480156101af5780601f10610184576101008083540402835291602001916101af565b820191906000526020600020905b81548152906001019060200180831161019257829003601f168201915b50508481038352888181546001816001161561010002031660029004815260200191508054600181600116156101000203166002900480156102325780601f1061020757610100808354040283529160200191610232565b820191906000526020600020905b81548152906001019060200180831161021557829003601f168201915b50508481038252878181546001816001161561010002031660029004815260200191508054600181600116156101000203166002900480156102b55780601f1061028a576101008083540402835291602001916102b5565b820191906000526020600020905b81548152906001019060200180831161029857829003601f168201915b5050995050505050505050505060405180910390f35b34156102d657600080fd5b6102ec60048080359060200190919050506106de565b604051808773ffffffffffffffffffffffffffffffffffffffff1673ffffffffffffffffffffffffffffffffffffffff168152602001806020018060200180602001868152602001858152602001848103845289818151815260200191508051906020019080838360005b83811015610372578082015181840152602081019050610357565b50505050905090810190601f16801561039f5780820380516001836020036101000a031916815260200191505b50848103835288818151815260200191508051906020019080838360005b838110156103d85780820151818401526020810190506103bd565b50505050905090810190601f1680156104055780820380516001836020036101000a031916815260200191505b50848103825287818151815260200191508051906020019080838360005b8381101561043e578082015181840152602081019050610423565b50505050905090810190601f16801561046b5780820380516001836020036101000a031916815260200191505b50995050505050505050505060405180910390f35b341561048b57600080fd5b61049361093f565b6040518082815260200191505060405180910390f35b34156104b457600080fd5b61059c600480803590602001908201803590602001908080601f0160208091040260200160405190810160405280939291908181526020018383808284378201915050505050509190803590602001908201803590602001908080601f0160208091040260200160405190810160405280939291908181526020018383808284378201915050505050509190803590602001908201803590602001908080601f0160208091040260200160405190810160405280939291908181526020018383808284378201915050505050509190803590602001909190803590602001909190505061094c565b6040518082815260200191505060405180910390f35b34156105bd57600080fd5b6105c5610b55565b604051808273ffffffffffffffffffffffffffffffffffffffff1673ffffffffffffffffffffffffffffffffffffffff16815260200191505060405180910390f35b341561061257600080fd5b610647600480803590602001909190803573ffffffffffffffffffffffffffffffffffffffff16906020019091905050610b7b565b604051808215151515815260200191505060405180910390f35b60018181548110151561067057fe5b90600052602060002090016000915090505481565b60006020528060005260406000206000915090508060000160009054906101000a900473ffffffffffffffffffffffffffffffffffffffff16908060010190806002019080600301908060040154908060050154905086565b60006106e8610d8c565b6106f0610d8c565b6106f8610d8c565b600080600080600089815260200190815260200160002090508060000160009054906101000a900473ffffffffffffffffffffffffffffffffffffffff169650806001018054600181600116156101000203166002900480601f0160208091040260200160405190810160405280929190818152602001828054600181600116156101000203166002900480156107d05780601f106107a5576101008083540402835291602001916107d0565b820191906000526020600020905b8154815290600101906020018083116107b357829003601f168201915b50505050509550806002018054600181600116156101000203166002900480601f01602080910402602001604051908101604052809291908181526020018280546001816001161561010002031660029004801561086f5780601f106108445761010080835404028352916020019161086f565b820191906000526020600020905b81548152906001019060200180831161085257829003601f168201915b50505050509450806003018054600181600116156101000203166002900480601f01602080910402602001604051908101604052809291908181526020018280546001816001161561010002031660029004801561090e5780601f106108e35761010080835404028352916020019161090e565b820191906000526020600020905b8154815290600101906020018083116108f157829003601f168201915b5050505050935080600401549250806005015491508686868686869650965096509650965096505091939550919395565b6000600180549050905090565b6000600180548091906001016109629190610da0565b90508060018281548110151561097457fe5b90600052602060002090018190555060c0604051908101604052803373ffffffffffffffffffffffffffffffffffffffff1681526020018781526020018681526020018581526020018481526020018381525060008083815260200190815260200160002060008201518160000160006101000a81548173ffffffffffffffffffffffffffffffffffffffff021916908373ffffffffffffffffffffffffffffffffffffffff1602179055506020820151816001019080519060200190610a3c929190610dcc565b506040820151816002019080519060200190610a59929190610dcc565b506060820151816003019080519060200190610a76929190610dcc565b506080820151816004015560a082015181600501559050503373ffffffffffffffffffffffffffffffffffffffff167ff645d5231257014315ed789c411b77c7e67b0405fd43321cea8589246e5f11c387856040518080602001838152602001828103825284818151815260200191508051906020019080838360005b83811015610b0e578082015181840152602081019050610af3565b50505050905090810190601f168015610b3b5780820380516001836020036101000a031916815260200191505b50935050505060405180910390a280905095945050505050565b600260009054906101000a900473ffffffffffffffffffffffffffffffffffffffff1681565b6000806000806000868152602001908152602001600020915081600401548260050154111515610ba757fe5b600260009054906101000a900473ffffffffffffffffffffffffffffffffffffffff1673ffffffffffffffffffffffffffffffffffffffff166323b872dd8360000160009054906101000a900473ffffffffffffffffffffffffffffffffffffffff168685600401546000604051602001526040518463ffffffff167c0100000000000000000000000000000000000000000000000000000000028152600401808473ffffffffffffffffffffffffffffffffffffffff1673ffffffffffffffffffffffffffffffffffffffff1681526020018373ffffffffffffffffffffffffffffffffffffffff1673ffffffffffffffffffffffffffffffffffffffff1681526020018281526020019350505050602060405180830381600087803b1515610cd057600080fd5b6102c65a03f11515610ce157600080fd5b5050506040518051905090508015610d6857610d0582600501548360040154610d73565b82600501819055508373ffffffffffffffffffffffffffffffffffffffff167f92d58cddedb8187a185471c659bcf1120160956f9b8b23f3df205e36b2dc6326868460040154604051808381526020018281526020019250505060405180910390a25b809250505092915050565b6000828211151515610d8157fe5b818303905092915050565b602060405190810160405280600081525090565b815481835581811511610dc757818360005260206000209182019101610dc69190610e4c565b5b505050565b828054600181600116156101000203166002900490600052602060002090601f016020900481019282601f10610e0d57805160ff1916838001178555610e3b565b82800160010185558215610e3b579182015b82811115610e3a578251825591602001919060010190610e1f565b5b509050610e489190610e4c565b5090565b610e6e91905b80821115610e6a576000816000905550600101610e52565b5090565b905600a165627a7a72305820a5b10b86fb9875535605e656e577b0354eaafcefff900e98edd8c758e6e46a970029",
  "source": "pragma solidity ^0.4.18;\n\nimport './zeppelin/math/SafeMath.sol';\n\ninterface ERC20 {\n  function balanceOf(address who) public constant returns (uint);\n  function allowance(address owner, address spender) public constant returns (uint);\n\n  function transfer(address to, uint value) public returns (bool ok);\n  function transferFrom(address from, address to, uint value) public returns (bool ok);\n  function approve(address spender, uint value) public returns (bool ok);\n\n  event Transfer(address indexed from, address indexed to, uint value);\n  event Approval(address indexed owner, address indexed spender, uint value);\n}\n\ncontract SignalTokenProtocol {\n  struct Campaign {\n    address advertiser;\n    string title;\n    string description;\n    string contentUrl;\n    uint256 reward;\n    uint256 budget;\n  }\n\n  event CampaignCreated(\n    address indexed _advertiser,\n    string _title,\n    uint256 _reward\n  );\n  event CampaignExecuted(\n    uint256 _campaignId,\n    address indexed _publisher,\n    uint256 _reward\n  );\n\n  mapping(uint256 => Campaign) public campaigns;\n  uint256[] public campaignsTable;\n\n  ERC20 public signalToken;\n\n  function SignalTokenProtocol(address _signalToken) public {\n    signalToken = ERC20(_signalToken);\n  }\n\n  function getCampaignsCount()\n    public\n    view\n    returns (uint256)\n  {\n    return campaignsTable.length;\n  }\n\n  function createCampaign(\n    string title,\n    string description,\n    string contentUrl,\n    uint256 reward,\n    uint256 budget\n  )\n    public\n    returns (uint256 campaignId)\n  {\n    campaignId = campaignsTable.length++;\n    campaignsTable[campaignId] = campaignId;\n\n    campaigns[campaignId] = Campaign(\n      msg.sender,\n      title,\n      description,\n      contentUrl,\n      reward,\n      budget\n    );\n\n    CampaignCreated(msg.sender, title, reward);\n    return campaignId;\n  }\n\n  function getCampaign(uint256 campaignId)\n    public\n    view\n    returns (\n      address advertiser,\n      string title,\n      string description,\n      string contentUrl,\n      uint256 reward,\n      uint256 budget\n    ) {\n    Campaign storage campaign = campaigns[campaignId];\n\n    advertiser = campaign.advertiser;\n    title = campaign.title;\n    description = campaign.description;\n    contentUrl = campaign.contentUrl;\n    reward = campaign.reward;\n    budget = campaign.budget;\n\n    return (advertiser, title, description, contentUrl, reward, budget);\n  }\n\n  function executeCampaign(uint256 campaignId, address publisher)\n    public\n    returns (bool)\n  {\n    var campaign = campaigns[campaignId];\n    assert(campaign.budget > campaign.reward);\n\n    bool success = signalToken.transferFrom(campaign.advertiser, publisher, campaign.reward);\n    if (success) {\n      campaign.budget = SafeMath.sub(campaign.budget, campaign.reward);\n      CampaignExecuted(campaignId, publisher, campaign.reward);\n    }\n\n    return success;\n  }\n}\n",
  "sourcePath": "/Users/train/Documents/Work/Decent/spectiv/signal-token-protocol/contracts/SignalTokenProtocol.sol",
  "compiler": {
    "name": "solc",
    "version": "0.4.19+commit.c4cbbb05.Emscripten.clang"
  },
  "schemaVersion": "1.0.1",
  "updatedAt": "2018-02-02T16:36:16.321Z"
}