{
  "contractName": "SignalTokenProtocol",
  "abi": [
    {
      "constant": true,
      "inputs": [
        {
          "name": "",
          "type": "uint256"
        }
      ],
      "name": "campaignsTable",
      "outputs": [
        {
          "name": "",
          "type": "uint256"
        }
      ],
      "payable": false,
      "stateMutability": "view",
      "type": "function"
    },
    {
      "constant": true,
      "inputs": [
        {
          "name": "",
          "type": "uint256"
        }
      ],
      "name": "campaigns",
      "outputs": [
        {
          "name": "advertiser",
          "type": "address"
        },
        {
          "name": "title",
          "type": "string"
        },
        {
          "name": "description",
          "type": "string"
        },
        {
          "name": "contentUrl",
          "type": "string"
        },
        {
          "name": "reward",
          "type": "uint256"
        },
        {
          "name": "budget",
          "type": "uint256"
        }
      ],
      "payable": false,
      "stateMutability": "view",
      "type": "function"
    },
    {
      "constant": true,
      "inputs": [
        {
          "name": "campaignId",
          "type": "uint256"
        }
      ],
      "name": "getCampaign",
      "outputs": [
        {
          "name": "advertiser",
          "type": "address"
        },
        {
          "name": "title",
          "type": "string"
        },
        {
          "name": "description",
          "type": "string"
        },
        {
          "name": "contentUrl",
          "type": "string"
        },
        {
          "name": "reward",
          "type": "uint256"
        },
        {
          "name": "budget",
          "type": "uint256"
        }
      ],
      "payable": false,
      "stateMutability": "view",
      "type": "function"
    },
    {
      "constant": false,
      "inputs": [
        {
          "name": "campaignId",
          "type": "uint256"
        }
      ],
      "name": "deleteCampaign",
      "outputs": [
        {
          "name": "",
          "type": "bool"
        }
      ],
      "payable": false,
      "stateMutability": "nonpayable",
      "type": "function"
    },
    {
      "constant": true,
      "inputs": [],
      "name": "getCampaignsCount",
      "outputs": [
        {
          "name": "",
          "type": "uint256"
        }
      ],
      "payable": false,
      "stateMutability": "view",
      "type": "function"
    },
    {
      "constant": false,
      "inputs": [
        {
          "name": "title",
          "type": "string"
        },
        {
          "name": "description",
          "type": "string"
        },
        {
          "name": "contentUrl",
          "type": "string"
        },
        {
          "name": "reward",
          "type": "uint256"
        },
        {
          "name": "budget",
          "type": "uint256"
        }
      ],
      "name": "createCampaign",
      "outputs": [
        {
          "name": "campaignId",
          "type": "uint256"
        }
      ],
      "payable": false,
      "stateMutability": "nonpayable",
      "type": "function"
    },
    {
      "constant": true,
      "inputs": [],
      "name": "signalToken",
      "outputs": [
        {
          "name": "",
          "type": "address"
        }
      ],
      "payable": false,
      "stateMutability": "view",
      "type": "function"
    },
    {
      "constant": false,
      "inputs": [
        {
          "name": "campaignId",
          "type": "uint256"
        },
        {
          "name": "publisher",
          "type": "address"
        }
      ],
      "name": "executeCampaign",
      "outputs": [
        {
          "name": "",
          "type": "bool"
        }
      ],
      "payable": false,
      "stateMutability": "nonpayable",
      "type": "function"
    },
    {
      "inputs": [
        {
          "name": "_signalToken",
          "type": "address"
        }
      ],
      "payable": false,
      "stateMutability": "nonpayable",
      "type": "constructor"
    },
    {
      "anonymous": false,
      "inputs": [
        {
          "indexed": true,
          "name": "_advertiser",
          "type": "address"
        },
        {
          "indexed": false,
          "name": "_title",
          "type": "string"
        },
        {
          "indexed": false,
          "name": "_reward",
          "type": "uint256"
        }
      ],
      "name": "CampaignCreated",
      "type": "event"
    },
    {
      "anonymous": false,
      "inputs": [
        {
          "indexed": false,
          "name": "_campaignId",
          "type": "uint256"
        },
        {
          "indexed": true,
          "name": "_publisher",
          "type": "address"
        },
        {
          "indexed": false,
          "name": "_reward",
          "type": "uint256"
        }
      ],
      "name": "CampaignExecuted",
      "type": "event"
    },
    {
      "anonymous": false,
      "inputs": [
        {
          "indexed": false,
          "name": "_campaignId",
          "type": "uint256"
        }
      ],
      "name": "CampaignDeleted",
      "type": "event"
    }
  ],
  "bytecode": "0x6060604052341561000f57600080fd5b6040516020806110fb8339810160405280805190602001909190505080600260006101000a81548173ffffffffffffffffffffffffffffffffffffffff021916908373ffffffffffffffffffffffffffffffffffffffff1602179055505061107f8061007c6000396000f30060606040526004361061008e576000357c0100000000000000000000000000000000000000000000000000000000900463ffffffff168063119241cb14610093578063141961bc146100ca5780635598f8cc146102d6578063759701931461048b5780637e6253da146104c6578063980f2e66146104ef578063d06c7b5b146105f8578063f207eefe1461064d575b600080fd5b341561009e57600080fd5b6100b460048080359060200190919050506106a7565b6040518082815260200191505060405180910390f35b34156100d557600080fd5b6100eb60048080359060200190919050506106cb565b604051808773ffffffffffffffffffffffffffffffffffffffff1673ffffffffffffffffffffffffffffffffffffffff1681526020018060200180602001806020018681526020018581526020018481038452898181546001816001161561010002031660029004815260200191508054600181600116156101000203166002900480156101ba5780601f1061018f576101008083540402835291602001916101ba565b820191906000526020600020905b81548152906001019060200180831161019d57829003601f168201915b505084810383528881815460018160011615610100020316600290048152602001915080546001816001161561010002031660029004801561023d5780601f106102125761010080835404028352916020019161023d565b820191906000526020600020905b81548152906001019060200180831161022057829003601f168201915b50508481038252878181546001816001161561010002031660029004815260200191508054600181600116156101000203166002900480156102c05780601f10610295576101008083540402835291602001916102c0565b820191906000526020600020905b8154815290600101906020018083116102a357829003601f168201915b5050995050505050505050505060405180910390f35b34156102e157600080fd5b6102f76004808035906020019091905050610724565b604051808773ffffffffffffffffffffffffffffffffffffffff1673ffffffffffffffffffffffffffffffffffffffff168152602001806020018060200180602001868152602001858152602001848103845289818151815260200191508051906020019080838360005b8381101561037d578082015181840152602081019050610362565b50505050905090810190601f1680156103aa5780820380516001836020036101000a031916815260200191505b50848103835288818151815260200191508051906020019080838360005b838110156103e35780820151818401526020810190506103c8565b50505050905090810190601f1680156104105780820380516001836020036101000a031916815260200191505b50848103825287818151815260200191508051906020019080838360005b8381101561044957808201518184015260208101905061042e565b50505050905090810190601f1680156104765780820380516001836020036101000a031916815260200191505b50995050505050505050505060405180910390f35b341561049657600080fd5b6104ac6004808035906020019091905050610985565b604051808215151515815260200191505060405180910390f35b34156104d157600080fd5b6104d9610ab4565b6040518082815260200191505060405180910390f35b34156104fa57600080fd5b6105e2600480803590602001908201803590602001908080601f0160208091040260200160405190810160405280939291908181526020018383808284378201915050505050509190803590602001908201803590602001908080601f0160208091040260200160405190810160405280939291908181526020018383808284378201915050505050509190803590602001908201803590602001908080601f01602080910402602001604051908101604052809392919081815260200183838082843782019150505050505091908035906020019091908035906020019091905050610ac1565b6040518082815260200191505060405180910390f35b341561060357600080fd5b61060b610cef565b604051808273ffffffffffffffffffffffffffffffffffffffff1673ffffffffffffffffffffffffffffffffffffffff16815260200191505060405180910390f35b341561065857600080fd5b61068d600480803590602001909190803573ffffffffffffffffffffffffffffffffffffffff16906020019091905050610d15565b604051808215151515815260200191505060405180910390f35b6001818154811015156106b657fe5b90600052602060002090016000915090505481565b60006020528060005260406000206000915090508060000160009054906101000a900473ffffffffffffffffffffffffffffffffffffffff16908060010190806002019080600301908060040154908060050154905086565b600061072e610f26565b610736610f26565b61073e610f26565b600080600080600089815260200190815260200160002090508060000160009054906101000a900473ffffffffffffffffffffffffffffffffffffffff169650806001018054600181600116156101000203166002900480601f0160208091040260200160405190810160405280929190818152602001828054600181600116156101000203166002900480156108165780601f106107eb57610100808354040283529160200191610816565b820191906000526020600020905b8154815290600101906020018083116107f957829003601f168201915b50505050509550806002018054600181600116156101000203166002900480601f0160208091040260200160405190810160405280929190818152602001828054600181600116156101000203166002900480156108b55780601f1061088a576101008083540402835291602001916108b5565b820191906000526020600020905b81548152906001019060200180831161089857829003601f168201915b50505050509450806003018054600181600116156101000203166002900480601f0160208091040260200160405190810160405280929190818152602001828054600181600116156101000203166002900480156109545780601f1061092957610100808354040283529160200191610954565b820191906000526020600020905b81548152906001019060200180831161093757829003601f168201915b5050505050935080600401549250806005015491508686868686869650965096509650965096505091939550919395565b60008060008084815260200190815260200160002090503373ffffffffffffffffffffffffffffffffffffffff168160000160009054906101000a900473ffffffffffffffffffffffffffffffffffffffff1673ffffffffffffffffffffffffffffffffffffffff161415156109f757fe5b600080848152602001908152602001600020600080820160006101000a81549073ffffffffffffffffffffffffffffffffffffffff0219169055600182016000610a419190610f3a565b600282016000610a519190610f3a565b600382016000610a619190610f3a565b6004820160009055600582016000905550507fa61e586bd6a065bde887af9ec4705829557488d3ccdea823ab66aafd7c3aa099836040518082815260200191505060405180910390a16001915050919050565b6000600180549050905090565b6000808651111515610acf57fe5b60008451111515610adc57fe5b828210151515610ae857fe5b60018054809190600101610afc9190610f82565b905080600182815481101515610b0e57fe5b90600052602060002090018190555060c0604051908101604052803373ffffffffffffffffffffffffffffffffffffffff1681526020018781526020018681526020018581526020018481526020018381525060008083815260200190815260200160002060008201518160000160006101000a81548173ffffffffffffffffffffffffffffffffffffffff021916908373ffffffffffffffffffffffffffffffffffffffff1602179055506020820151816001019080519060200190610bd6929190610fae565b506040820151816002019080519060200190610bf3929190610fae565b506060820151816003019080519060200190610c10929190610fae565b506080820151816004015560a082015181600501559050503373ffffffffffffffffffffffffffffffffffffffff167ff645d5231257014315ed789c411b77c7e67b0405fd43321cea8589246e5f11c387856040518080602001838152602001828103825284818151815260200191508051906020019080838360005b83811015610ca8578082015181840152602081019050610c8d565b50505050905090810190601f168015610cd55780820380516001836020036101000a031916815260200191505b50935050505060405180910390a280905095945050505050565b600260009054906101000a900473ffffffffffffffffffffffffffffffffffffffff1681565b6000806000806000868152602001908152602001600020915081600401548260050154111515610d4157fe5b600260009054906101000a900473ffffffffffffffffffffffffffffffffffffffff1673ffffffffffffffffffffffffffffffffffffffff166323b872dd8360000160009054906101000a900473ffffffffffffffffffffffffffffffffffffffff168685600401546000604051602001526040518463ffffffff167c0100000000000000000000000000000000000000000000000000000000028152600401808473ffffffffffffffffffffffffffffffffffffffff1673ffffffffffffffffffffffffffffffffffffffff1681526020018373ffffffffffffffffffffffffffffffffffffffff1673ffffffffffffffffffffffffffffffffffffffff1681526020018281526020019350505050602060405180830381600087803b1515610e6a57600080fd5b6102c65a03f11515610e7b57600080fd5b5050506040518051905090508015610f0257610e9f82600501548360040154610f0d565b82600501819055508373ffffffffffffffffffffffffffffffffffffffff167f92d58cddedb8187a185471c659bcf1120160956f9b8b23f3df205e36b2dc6326868460040154604051808381526020018281526020019250505060405180910390a25b809250505092915050565b6000828211151515610f1b57fe5b818303905092915050565b602060405190810160405280600081525090565b50805460018160011615610100020316600290046000825580601f10610f605750610f7f565b601f016020900490600052602060002090810190610f7e919061102e565b5b50565b815481835581811511610fa957818360005260206000209182019101610fa8919061102e565b5b505050565b828054600181600116156101000203166002900490600052602060002090601f016020900481019282601f10610fef57805160ff191683800117855561101d565b8280016001018555821561101d579182015b8281111561101c578251825591602001919060010190611001565b5b50905061102a919061102e565b5090565b61105091905b8082111561104c576000816000905550600101611034565b5090565b905600a165627a7a723058206b3b646037b383f6d6dd2768a54902a79f42fb87676a563e5d593b44573e85e30029",
  "source": "pragma solidity ^0.4.18;\n\nimport './zeppelin/math/SafeMath.sol';\n\ninterface ERC20 {\n  function balanceOf(address who) public constant returns (uint);\n  function allowance(address owner, address spender) public constant returns (uint);\n\n  function transfer(address to, uint value) public returns (bool ok);\n  function transferFrom(address from, address to, uint value) public returns (bool ok);\n  function approve(address spender, uint value) public returns (bool ok);\n\n  event Transfer(address indexed from, address indexed to, uint value);\n  event Approval(address indexed owner, address indexed spender, uint value);\n}\n\ncontract SignalTokenProtocol {\n  struct Campaign {\n    address advertiser;\n    string title;\n    string description;\n    string contentUrl;\n    uint256 reward;\n    uint256 budget;\n  }\n\n  event CampaignCreated(address indexed _advertiser, string _title, uint256 _reward);\n  event CampaignExecuted(uint256 _campaignId, address indexed _publisher, uint256 _reward);\n  event CampaignDeleted(uint256 _campaignId);\n\n  mapping(uint256 => Campaign) public campaigns;\n  uint256[] public campaignsTable;\n\n  ERC20 public signalToken;\n\n  function SignalTokenProtocol(address _signalToken) public {\n    signalToken = ERC20(_signalToken);\n  }\n\n  function getCampaignsCount()\n    public\n    view\n    returns (uint256)\n  {\n    return campaignsTable.length;\n  }\n\n  function createCampaign(\n    string title,\n    string description,\n    string contentUrl,\n    uint256 reward,\n    uint256 budget\n  )\n    public\n    returns (uint256 campaignId)\n  {\n    assert(bytes(title).length > 0);\n    assert(bytes(contentUrl).length > 0);\n    assert(budget >= reward);\n\n    campaignId = campaignsTable.length++;\n    campaignsTable[campaignId] = campaignId;\n\n    campaigns[campaignId] = Campaign(\n      msg.sender,\n      title,\n      description,\n      contentUrl,\n      reward,\n      budget\n    );\n\n    CampaignCreated(msg.sender, title, reward);\n    return campaignId;\n  }\n\n  function getCampaign(uint256 campaignId)\n    public\n    view\n    returns (\n      address advertiser,\n      string title,\n      string description,\n      string contentUrl,\n      uint256 reward,\n      uint256 budget\n    ) {\n    Campaign storage campaign = campaigns[campaignId];\n\n    advertiser = campaign.advertiser;\n    title = campaign.title;\n    description = campaign.description;\n    contentUrl = campaign.contentUrl;\n    reward = campaign.reward;\n    budget = campaign.budget;\n\n    return (advertiser, title, description, contentUrl, reward, budget);\n  }\n\n  function deleteCampaign(uint256 campaignId)\n    public\n    returns (bool)\n  {\n    var campaign = campaigns[campaignId];\n    assert(campaign.advertiser == msg.sender);\n    delete campaigns[campaignId];\n    CampaignDeleted(campaignId);\n    return true;\n  }\n\n  function executeCampaign(uint256 campaignId, address publisher)\n    public\n    returns (bool)\n  {\n    var campaign = campaigns[campaignId];\n    assert(campaign.budget > campaign.reward);\n\n    bool success = signalToken.transferFrom(campaign.advertiser, publisher, campaign.reward);\n    if (success) {\n      campaign.budget = SafeMath.sub(campaign.budget, campaign.reward);\n      CampaignExecuted(campaignId, publisher, campaign.reward);\n    }\n\n    return success;\n  }\n}\n",
  "sourcePath": "/Users/train/Documents/Work/Decent/spectiv/signal-token-protocol/contracts/SignalTokenProtocol.sol",
  "compiler": {
    "name": "solc",
    "version": "0.4.19+commit.c4cbbb05.Emscripten.clang"
  },
  "schemaVersion": "1.0.1",
  "updatedAt": "2018-02-07T07:47:48.241Z"
}